:1000000000800020C1020000BD020000BD0200000F
:1000100000000000000000000000000000000000E0
:10002000000000000000000000000000BD02000011
:100030000000000000000000BD020000BD02000042
:10004000BD020000BD020000BD020000BD020000B4
:10005000BD020000BD020000BD020000BD020000A4
:10006000BD020000BD020000BD020000BD02000094
:10007000BD020000BD020000BD020000BD02000084
:10008000BD020000BD020000D1000000BD02000062
:10009000BD020000BD020000BD020000BD02000064
:1000A000BD020000BD020000BD020000BD02000054
:1000B000024BDB7BDB09FBD17047C046002C0042C2
:1000C000024BDB69002BFBD17047C0460014004295
:1000D000054B1022997B114204D080200349C005B2
:1000E00008609A737047C046002C00429C4400414F
:1000F000F7B55B4B5B4A196A0A401A6262B65A4FFF
:1001000080233A6A1B01134358483B62584B594CB1
:100110004380594B00252380FFF7CAFF2582FFF754
:10012000C7FF564B564E2383FFF7C2FF2582FFF7CA
:10013000BFFF238802252B432380FFF7B9FF10233D
:10014000637380224F4BD2021A608023DB03B360BB
:100150004D4B01211A780F202A431A701A788446D1
:100160000A431A70494A0421137883432B431370BE
:1001700080231B047360464B187828431870187846
:10018000884318701878012101431970117863466B
:1001900019402023194311703A6A344813433B62D3
:1001A0003C4B3D4F43803D4B3B60FFF789FFC023F5
:1001B0009B027B60FFF784FF394BBB81FFF780FF19
:1001C0003B681D433D60FFF77BFF364B1D78002DDC
:1001D00006D001333A7ED107FCD52F4A1585F5E7C5
:1001E000314A8023DB05314913600878022210432D
:1001F00008702F492C1C0B6080212E4B0902716066
:10020000187802431A701878042290431870B1616C
:1002100019780A431A70336A1A041ED4264B9C427A
:10022000F9D801349C42F6D101235D406423002DAE
:1002300001D1FA235B001F2253430E480383FFF7CB
:1002400037FF0C4900230B82FFF732FF3B7EDA07B2
:10025000FCD5114B2E221A85DDE70024DBE7C046D2
:1002600000080040FFFCFFFF00040040000C0040BD
:100270001B400000002C0042202600008C3C0000A7
:100280000044004100E100E0564400413B4400418D
:100290005744004117400000001400420400104081
:1002A00004C5FFFF0803000088440041DE4400410C
:1002B000944400414F44004188130000FEE70000D1
:1002C00008B500230B4A0C499A188A4204D20B49FC
:1002D000C95804331160F5E7094B0A4A191D043B5C
:1002E000934203D200221A600B1CF6E7FFF700FFCF
:1002F000FEE7C04600000020000000201C030000B4
:1003000004000020000000200D0A48656C6C6F2C72
:0C03100020776F726C64210D0A00FFFF63
:04000003000002C136
:00000001FF
